{
  "_format": "hh-sol-artifact-1",
  "contractName": "Marketplace",
  "sourceName": "contracts/Marketplace.sol",
  "abi": [
    {
      "inputs": [],
      "stateMutability": "nonpayable",
      "type": "constructor"
    },
    {
      "inputs": [
        {
          "internalType": "address",
          "name": "owner",
          "type": "address"
        }
      ],
      "name": "OwnableInvalidOwner",
      "type": "error"
    },
    {
      "inputs": [
        {
          "internalType": "address",
          "name": "account",
          "type": "address"
        }
      ],
      "name": "OwnableUnauthorizedAccount",
      "type": "error"
    },
    {
      "inputs": [],
      "name": "ReentrancyGuardReentrantCall",
      "type": "error"
    },
    {
      "anonymous": false,
      "inputs": [
        {
          "indexed": true,
          "internalType": "address",
          "name": "previousOwner",
          "type": "address"
        },
        {
          "indexed": true,
          "internalType": "address",
          "name": "newOwner",
          "type": "address"
        }
      ],
      "name": "OwnershipTransferred",
      "type": "event"
    },
    {
      "inputs": [
        {
          "internalType": "uint256",
          "name": "",
          "type": "uint256"
        }
      ],
      "name": "auctions",
      "outputs": [
        {
          "internalType": "uint256",
          "name": "endTime",
          "type": "uint256"
        },
        {
          "internalType": "address",
          "name": "highestBidder",
          "type": "address"
        },
        {
          "internalType": "uint256",
          "name": "highestBid",
          "type": "uint256"
        },
        {
          "internalType": "bool",
          "name": "finalized",
          "type": "bool"
        }
      ],
      "stateMutability": "view",
      "type": "function"
    },
    {
      "inputs": [
        {
          "internalType": "uint256",
          "name": "listingId",
          "type": "uint256"
        }
      ],
      "name": "bid",
      "outputs": [],
      "stateMutability": "payable",
      "type": "function"
    },
    {
      "inputs": [
        {
          "internalType": "uint256",
          "name": "listingId",
          "type": "uint256"
        }
      ],
      "name": "buy",
      "outputs": [],
      "stateMutability": "payable",
      "type": "function"
    },
    {
      "inputs": [
        {
          "internalType": "uint256",
          "name": "listingId",
          "type": "uint256"
        }
      ],
      "name": "finalizeAuction",
      "outputs": [],
      "stateMutability": "nonpayable",
      "type": "function"
    },
    {
      "inputs": [
        {
          "internalType": "address",
          "name": "nft",
          "type": "address"
        },
        {
          "internalType": "uint256",
          "name": "tokenId",
          "type": "uint256"
        },
        {
          "internalType": "uint256",
          "name": "startingPrice",
          "type": "uint256"
        },
        {
          "internalType": "uint256",
          "name": "duration",
          "type": "uint256"
        }
      ],
      "name": "listAuction",
      "outputs": [],
      "stateMutability": "nonpayable",
      "type": "function"
    },
    {
      "inputs": [
        {
          "internalType": "address",
          "name": "nft",
          "type": "address"
        },
        {
          "internalType": "uint256",
          "name": "tokenId",
          "type": "uint256"
        },
        {
          "internalType": "uint256",
          "name": "price",
          "type": "uint256"
        }
      ],
      "name": "listFixedPrice",
      "outputs": [],
      "stateMutability": "nonpayable",
      "type": "function"
    },
    {
      "inputs": [
        {
          "internalType": "uint256",
          "name": "",
          "type": "uint256"
        }
      ],
      "name": "listings",
      "outputs": [
        {
          "internalType": "address",
          "name": "seller",
          "type": "address"
        },
        {
          "internalType": "address",
          "name": "nft",
          "type": "address"
        },
        {
          "internalType": "uint256",
          "name": "tokenId",
          "type": "uint256"
        },
        {
          "internalType": "uint256",
          "name": "price",
          "type": "uint256"
        },
        {
          "internalType": "enum Marketplace.SaleType",
          "name": "saleType",
          "type": "uint8"
        },
        {
          "internalType": "bool",
          "name": "active",
          "type": "bool"
        }
      ],
      "stateMutability": "view",
      "type": "function"
    },
    {
      "inputs": [],
      "name": "nextListingId",
      "outputs": [
        {
          "internalType": "uint256",
          "name": "",
          "type": "uint256"
        }
      ],
      "stateMutability": "view",
      "type": "function"
    },
    {
      "inputs": [],
      "name": "owner",
      "outputs": [
        {
          "internalType": "address",
          "name": "",
          "type": "address"
        }
      ],
      "stateMutability": "view",
      "type": "function"
    },
    {
      "inputs": [
        {
          "internalType": "address",
          "name": "",
          "type": "address"
        }
      ],
      "name": "pendingWithdrawals",
      "outputs": [
        {
          "internalType": "uint256",
          "name": "",
          "type": "uint256"
        }
      ],
      "stateMutability": "view",
      "type": "function"
    },
    {
      "inputs": [],
      "name": "platformFeeBps",
      "outputs": [
        {
          "internalType": "uint256",
          "name": "",
          "type": "uint256"
        }
      ],
      "stateMutability": "view",
      "type": "function"
    },
    {
      "inputs": [],
      "name": "platformFeesAccrued",
      "outputs": [
        {
          "internalType": "uint256",
          "name": "",
          "type": "uint256"
        }
      ],
      "stateMutability": "view",
      "type": "function"
    },
    {
      "inputs": [],
      "name": "renounceOwnership",
      "outputs": [],
      "stateMutability": "nonpayable",
      "type": "function"
    },
    {
      "inputs": [
        {
          "internalType": "address",
          "name": "newOwner",
          "type": "address"
        }
      ],
      "name": "transferOwnership",
      "outputs": [],
      "stateMutability": "nonpayable",
      "type": "function"
    },
    {
      "inputs": [],
      "name": "withdraw",
      "outputs": [],
      "stateMutability": "nonpayable",
      "type": "function"
    },
    {
      "inputs": [],
      "name": "withdrawPlatformFees",
      "outputs": [],
      "stateMutability": "nonpayable",
      "type": "function"
    }
  ],
  "bytecode": "0x608060405260fa6003553480156200001657600080fd5b50336001600081905550600073ffffffffffffffffffffffffffffffffffffffff168173ffffffffffffffffffffffffffffffffffffffff1603620000955760006040517f1e4fbdf70000000000000000000000000000000000000000000000000000000081526004016200008c9190620001b8565b60405180910390fd5b620000a681620000ad60201b60201c565b50620001d5565b6000600160009054906101000a900473ffffffffffffffffffffffffffffffffffffffff16905081600160006101000a81548173ffffffffffffffffffffffffffffffffffffffff021916908373ffffffffffffffffffffffffffffffffffffffff1602179055508173ffffffffffffffffffffffffffffffffffffffff168173ffffffffffffffffffffffffffffffffffffffff167f8be0079c531659141344cd1fd0a4f28419497f9722a3daafe3b4186f6b6457e060405160405180910390a35050565b600073ffffffffffffffffffffffffffffffffffffffff82169050919050565b6000620001a08262000173565b9050919050565b620001b28162000193565b82525050565b6000602082019050620001cf6000830184620001a7565b92915050565b6120d680620001e56000396000f3fe6080604052600436106100f35760003560e01c8063946080e71161008a578063de74e57b11610059578063de74e57b146102b3578063e8083863146102f5578063f2fde38b1461031e578063f3f4370314610347576100f3565b8063946080e71461022c578063aaccf1ec14610255578063d0b7830b14610280578063d96a094a14610297576100f3565b8063571a26a0116100c6578063571a26a01461018157806370224bb9146101c1578063715018a6146101ea5780638da5cb5b14610201576100f3565b806322163b86146100f857806322dcd13e146101235780633ccfd60b1461014e578063454a2ab314610165575b600080fd5b34801561010457600080fd5b5061010d610384565b60405161011a9190611712565b60405180910390f35b34801561012f57600080fd5b5061013861038a565b6040516101459190611712565b60405180910390f35b34801561015a57600080fd5b50610163610390565b005b61017f600480360381019061017a919061175e565b61051c565b005b34801561018d57600080fd5b506101a860048036038101906101a3919061175e565b610728565b6040516101b894939291906117e7565b60405180910390f35b3480156101cd57600080fd5b506101e860048036038101906101e39190611858565b610785565b005b3480156101f657600080fd5b506101ff610799565b005b34801561020d57600080fd5b506102166107ad565b60405161022391906118bf565b60405180910390f35b34801561023857600080fd5b50610253600480360381019061024e91906118da565b6107d7565b005b34801561026157600080fd5b5061026a6107ea565b6040516102779190611712565b60405180910390f35b34801561028c57600080fd5b506102956107f0565b005b6102b160048036038101906102ac919061175e565b6108be565b005b3480156102bf57600080fd5b506102da60048036038101906102d5919061175e565b610c4b565b6040516102ec969594939291906119a4565b60405180910390f35b34801561030157600080fd5b5061031c6004803603810190610317919061175e565b610ce1565b005b34801561032a57600080fd5b5061034560048036038101906103409190611a05565b6111ab565b005b34801561035357600080fd5b5061036e60048036038101906103699190611a05565b611231565b60405161037b9190611712565b60405180910390f35b60045481565b60035481565b610398611249565b6000600760003373ffffffffffffffffffffffffffffffffffffffff1673ffffffffffffffffffffffffffffffffffffffff1681526020019081526020016000205490506000811161041f576040517f08c379a000000000000000000000000000000000000000000000000000000000815260040161041690611a8f565b60405180910390fd5b6000600760003373ffffffffffffffffffffffffffffffffffffffff1673ffffffffffffffffffffffffffffffffffffffff1681526020019081526020016000208190555060003373ffffffffffffffffffffffffffffffffffffffff168260405161048a90611ae0565b60006040518083038185875af1925050503d80600081146104c7576040519150601f19603f3d011682016040523d82523d6000602084013e6104cc565b606091505b5050905080610510576040517f08c379a000000000000000000000000000000000000000000000000000000000815260040161050790611b41565b60405180910390fd5b505061051a61128f565b565b610524611249565b600060066000838152602001908152602001600020905060006005600084815260200190815260200160002090508060040160019054906101000a900460ff1680156105735750816000015442105b6105b2576040517f08c379a00000000000000000000000000000000000000000000000000000000081526004016105a990611bad565b60405180910390fd5b816002015434116105f8576040517f08c379a00000000000000000000000000000000000000000000000000000000081526004016105ef90611c19565b60405180910390fd5b600073ffffffffffffffffffffffffffffffffffffffff168260010160009054906101000a900473ffffffffffffffffffffffffffffffffffffffff1673ffffffffffffffffffffffffffffffffffffffff16146106cf578160020154600760008460010160009054906101000a900473ffffffffffffffffffffffffffffffffffffffff1673ffffffffffffffffffffffffffffffffffffffff1673ffffffffffffffffffffffffffffffffffffffff16815260200190815260200160002060008282546106c79190611c68565b925050819055505b338260010160006101000a81548173ffffffffffffffffffffffffffffffffffffffff021916908373ffffffffffffffffffffffffffffffffffffffff160217905550348260020181905550505061072561128f565b50565b60066020528060005260406000206000915090508060000154908060010160009054906101000a900473ffffffffffffffffffffffffffffffffffffffff16908060020154908060030160009054906101000a900460ff16905084565b610793848484600185611299565b50505050565b6107a16115a4565b6107ab600061162b565b565b6000600160009054906101000a900473ffffffffffffffffffffffffffffffffffffffff16905090565b6107e5838383600080611299565b505050565b60025481565b6107f86115a4565b60006004549050600060048190555060006108116107ad565b73ffffffffffffffffffffffffffffffffffffffff168260405161083490611ae0565b60006040518083038185875af1925050503d8060008114610871576040519150601f19603f3d011682016040523d82523d6000602084013e610876565b606091505b50509050806108ba576040517f08c379a00000000000000000000000000000000000000000000000000000000081526004016108b190611ce8565b60405180910390fd5b5050565b6108c6611249565b60006005600083815260200190815260200160002090508060040160019054906101000a900460ff16801561093057506000600181111561090a5761090961192d565b5b8160040160009054906101000a900460ff16600181111561092e5761092d61192d565b5b145b61096f576040517f08c379a000000000000000000000000000000000000000000000000000000000815260040161096690611d54565b60405180910390fd5b80600301543410156109b6576040517f08c379a00000000000000000000000000000000000000000000000000000000081526004016109ad90611dc0565b60405180910390fd5b60008160040160016101000a81548160ff0219169083151502179055506000808260010160009054906101000a900473ffffffffffffffffffffffffffffffffffffffff1673ffffffffffffffffffffffffffffffffffffffff16632a55205a8460020154346040518363ffffffff1660e01b8152600401610a39929190611de0565b6040805180830381865afa158015610a55573d6000803e3d6000fd5b505050506040513d601f19601f82011682018060405250810190610a799190611e33565b915091506000811115610add5780600760008473ffffffffffffffffffffffffffffffffffffffff1673ffffffffffffffffffffffffffffffffffffffff1681526020019081526020016000206000828254610ad59190611c68565b925050819055505b600061271060035434610af09190611e73565b610afa9190611ee4565b90508060046000828254610b0e9190611c68565b92505081905550808234610b229190611f15565b610b2c9190611f15565b600760008660000160009054906101000a900473ffffffffffffffffffffffffffffffffffffffff1673ffffffffffffffffffffffffffffffffffffffff1673ffffffffffffffffffffffffffffffffffffffff1681526020019081526020016000206000828254610b9e9190611c68565b925050819055508360010160009054906101000a900473ffffffffffffffffffffffffffffffffffffffff1673ffffffffffffffffffffffffffffffffffffffff166323b872dd303387600201546040518463ffffffff1660e01b8152600401610c0a93929190611f49565b600060405180830381600087803b158015610c2457600080fd5b505af1158015610c38573d6000803e3d6000fd5b5050505050505050610c4861128f565b50565b60056020528060005260406000206000915090508060000160009054906101000a900473ffffffffffffffffffffffffffffffffffffffff16908060010160009054906101000a900473ffffffffffffffffffffffffffffffffffffffff16908060020154908060030154908060040160009054906101000a900460ff16908060040160019054906101000a900460ff16905086565b610ce9611249565b600060066000838152602001908152602001600020905060006005600084815260200190815260200160002090508160000154421015610d5e576040517f08c379a0000000000000000000000000000000000000000000000000000000008152600401610d5590611fcc565b60405180910390fd5b8060040160019054906101000a900460ff16610daf576040517f08c379a0000000000000000000000000000000000000000000000000000000008152600401610da690612038565b60405180910390fd5b60008160040160016101000a81548160ff02191690831515021790555060018260030160006101000a81548160ff021916908315150217905550600073ffffffffffffffffffffffffffffffffffffffff168260010160009054906101000a900473ffffffffffffffffffffffffffffffffffffffff1673ffffffffffffffffffffffffffffffffffffffff16146110e2576000808260010160009054906101000a900473ffffffffffffffffffffffffffffffffffffffff1673ffffffffffffffffffffffffffffffffffffffff16632a55205a846002015486600201546040518363ffffffff1660e01b8152600401610eab929190611de0565b6040805180830381865afa158015610ec7573d6000803e3d6000fd5b505050506040513d601f19601f82011682018060405250810190610eeb9190611e33565b915091506000811115610f4f5780600760008473ffffffffffffffffffffffffffffffffffffffff1673ffffffffffffffffffffffffffffffffffffffff1681526020019081526020016000206000828254610f479190611c68565b925050819055505b60006127106003548660020154610f669190611e73565b610f709190611ee4565b90508060046000828254610f849190611c68565b9250508190555080828660020154610f9c9190611f15565b610fa69190611f15565b600760008660000160009054906101000a900473ffffffffffffffffffffffffffffffffffffffff1673ffffffffffffffffffffffffffffffffffffffff1673ffffffffffffffffffffffffffffffffffffffff16815260200190815260200160002060008282546110189190611c68565b925050819055508360010160009054906101000a900473ffffffffffffffffffffffffffffffffffffffff1673ffffffffffffffffffffffffffffffffffffffff166323b872dd308760010160009054906101000a900473ffffffffffffffffffffffffffffffffffffffff1687600201546040518463ffffffff1660e01b81526004016110a893929190611f49565b600060405180830381600087803b1580156110c257600080fd5b505af11580156110d6573d6000803e3d6000fd5b5050505050505061119e565b8060010160009054906101000a900473ffffffffffffffffffffffffffffffffffffffff1673ffffffffffffffffffffffffffffffffffffffff166323b872dd308360000160009054906101000a900473ffffffffffffffffffffffffffffffffffffffff1684600201546040518463ffffffff1660e01b815260040161116b93929190611f49565b600060405180830381600087803b15801561118557600080fd5b505af1158015611199573d6000803e3d6000fd5b505050505b50506111a861128f565b50565b6111b36115a4565b600073ffffffffffffffffffffffffffffffffffffffff168173ffffffffffffffffffffffffffffffffffffffff16036112255760006040517f1e4fbdf700000000000000000000000000000000000000000000000000000000815260040161121c91906118bf565b60405180910390fd5b61122e8161162b565b50565b60076020528060005260406000206000915090505481565b600260005403611285576040517f3ee5aeb500000000000000000000000000000000000000000000000000000000815260040160405180910390fd5b6002600081905550565b6001600081905550565b8473ffffffffffffffffffffffffffffffffffffffff166323b872dd3330876040518463ffffffff1660e01b81526004016112d693929190611f49565b600060405180830381600087803b1580156112f057600080fd5b505af1158015611304573d6000803e3d6000fd5b5050505060006002600081548092919061131d90612058565b9190505590506040518060c001604052803373ffffffffffffffffffffffffffffffffffffffff1681526020018773ffffffffffffffffffffffffffffffffffffffff1681526020018681526020018581526020018460018111156113855761138461192d565b5b8152602001600115158152506005600083815260200190815260200160002060008201518160000160006101000a81548173ffffffffffffffffffffffffffffffffffffffff021916908373ffffffffffffffffffffffffffffffffffffffff16021790555060208201518160010160006101000a81548173ffffffffffffffffffffffffffffffffffffffff021916908373ffffffffffffffffffffffffffffffffffffffff160217905550604082015181600201556060820151816003015560808201518160040160006101000a81548160ff021916908360018111156114715761147061192d565b5b021790555060a08201518160040160016101000a81548160ff0219169083151502179055509050506001808111156114ac576114ab61192d565b5b8360018111156114bf576114be61192d565b5b0361159c57604051806080016040528083426114db9190611c68565b8152602001600073ffffffffffffffffffffffffffffffffffffffff16815260200185815260200160001515815250600660008381526020019081526020016000206000820151816000015560208201518160010160006101000a81548173ffffffffffffffffffffffffffffffffffffffff021916908373ffffffffffffffffffffffffffffffffffffffff1602179055506040820151816002015560608201518160030160006101000a81548160ff0219169083151502179055509050505b505050505050565b6115ac6116f1565b73ffffffffffffffffffffffffffffffffffffffff166115ca6107ad565b73ffffffffffffffffffffffffffffffffffffffff1614611629576115ed6116f1565b6040517f118cdaa700000000000000000000000000000000000000000000000000000000815260040161162091906118bf565b60405180910390fd5b565b6000600160009054906101000a900473ffffffffffffffffffffffffffffffffffffffff16905081600160006101000a81548173ffffffffffffffffffffffffffffffffffffffff021916908373ffffffffffffffffffffffffffffffffffffffff1602179055508173ffffffffffffffffffffffffffffffffffffffff168173ffffffffffffffffffffffffffffffffffffffff167f8be0079c531659141344cd1fd0a4f28419497f9722a3daafe3b4186f6b6457e060405160405180910390a35050565b600033905090565b6000819050919050565b61170c816116f9565b82525050565b60006020820190506117276000830184611703565b92915050565b600080fd5b61173b816116f9565b811461174657600080fd5b50565b60008135905061175881611732565b92915050565b6000602082840312156117745761177361172d565b5b600061178284828501611749565b91505092915050565b600073ffffffffffffffffffffffffffffffffffffffff82169050919050565b60006117b68261178b565b9050919050565b6117c6816117ab565b82525050565b60008115159050919050565b6117e1816117cc565b82525050565b60006080820190506117fc6000830187611703565b61180960208301866117bd565b6118166040830185611703565b61182360608301846117d8565b95945050505050565b611835816117ab565b811461184057600080fd5b50565b6000813590506118528161182c565b92915050565b600080600080608085870312156118725761187161172d565b5b600061188087828801611843565b945050602061189187828801611749565b93505060406118a287828801611749565b92505060606118b387828801611749565b91505092959194509250565b60006020820190506118d460008301846117bd565b92915050565b6000806000606084860312156118f3576118f261172d565b5b600061190186828701611843565b935050602061191286828701611749565b925050604061192386828701611749565b9150509250925092565b7f4e487b7100000000000000000000000000000000000000000000000000000000600052602160045260246000fd5b6002811061196d5761196c61192d565b5b50565b600081905061197e8261195c565b919050565b600061198e82611970565b9050919050565b61199e81611983565b82525050565b600060c0820190506119b960008301896117bd565b6119c660208301886117bd565b6119d36040830187611703565b6119e06060830186611703565b6119ed6080830185611995565b6119fa60a08301846117d8565b979650505050505050565b600060208284031215611a1b57611a1a61172d565b5b6000611a2984828501611843565b91505092915050565b600082825260208201905092915050565b7f4e6f2066756e6473000000000000000000000000000000000000000000000000600082015250565b6000611a79600883611a32565b9150611a8482611a43565b602082019050919050565b60006020820190508181036000830152611aa881611a6c565b9050919050565b600081905092915050565b50565b6000611aca600083611aaf565b9150611ad582611aba565b600082019050919050565b6000611aeb82611abd565b9150819050919050565b7f5769746864726177616c206661696c6564000000000000000000000000000000600082015250565b6000611b2b601183611a32565b9150611b3682611af5565b602082019050919050565b60006020820190508181036000830152611b5a81611b1e565b9050919050565b7f41756374696f6e20656e646564206f7220696e61637469766500000000000000600082015250565b6000611b97601983611a32565b9150611ba282611b61565b602082019050919050565b60006020820190508181036000830152611bc681611b8a565b9050919050565b7f42696420746f6f206c6f77000000000000000000000000000000000000000000600082015250565b6000611c03600b83611a32565b9150611c0e82611bcd565b602082019050919050565b60006020820190508181036000830152611c3281611bf6565b9050919050565b7f4e487b7100000000000000000000000000000000000000000000000000000000600052601160045260246000fd5b6000611c73826116f9565b9150611c7e836116f9565b9250828201905080821115611c9657611c95611c39565b5b92915050565b7f506c6174666f726d20666565207769746864726177616c206661696c65640000600082015250565b6000611cd2601e83611a32565b9150611cdd82611c9c565b602082019050919050565b60006020820190508181036000830152611d0181611cc5565b9050919050565b7f496e76616c6964206c697374696e670000000000000000000000000000000000600082015250565b6000611d3e600f83611a32565b9150611d4982611d08565b602082019050919050565b60006020820190508181036000830152611d6d81611d31565b9050919050565b7f496e73756666696369656e74207061796d656e74000000000000000000000000600082015250565b6000611daa601483611a32565b9150611db582611d74565b602082019050919050565b60006020820190508181036000830152611dd981611d9d565b9050919050565b6000604082019050611df56000830185611703565b611e026020830184611703565b9392505050565b600081519050611e188161182c565b92915050565b600081519050611e2d81611732565b92915050565b60008060408385031215611e4a57611e4961172d565b5b6000611e5885828601611e09565b9250506020611e6985828601611e1e565b9150509250929050565b6000611e7e826116f9565b9150611e89836116f9565b9250828202611e97816116f9565b91508282048414831517611eae57611ead611c39565b5b5092915050565b7f4e487b7100000000000000000000000000000000000000000000000000000000600052601260045260246000fd5b6000611eef826116f9565b9150611efa836116f9565b925082611f0a57611f09611eb5565b5b828204905092915050565b6000611f20826116f9565b9150611f2b836116f9565b9250828203905081811115611f4357611f42611c39565b5b92915050565b6000606082019050611f5e60008301866117bd565b611f6b60208301856117bd565b611f786040830184611703565b949350505050565b7f41756374696f6e207374696c6c2072756e6e696e670000000000000000000000600082015250565b6000611fb6601583611a32565b9150611fc182611f80565b602082019050919050565b60006020820190508181036000830152611fe581611fa9565b9050919050565b7f416c72656164792066696e616c697a6564000000000000000000000000000000600082015250565b6000612022601183611a32565b915061202d82611fec565b602082019050919050565b6000602082019050818103600083015261205181612015565b9050919050565b6000612063826116f9565b91507fffffffffffffffffffffffffffffffffffffffffffffffffffffffffffffffff820361209557612094611c39565b5b60018201905091905056fea26469706673582212206bdb12d7a7d3782fac5275ecfb7192e668b1fb222cc52c7b0f03265c7c0c1abf64736f6c63430008140033",
  "linkReferences": {},
  "deployedLinkReferences": {}
}