{
  "_format": "hh-sol-artifact-1",
  "contractName": "NFTCollection",
  "sourceName": "contracts/NFTCollection.sol",
  "abi": [
    {
      "inputs": [
        {
          "internalType": "string",
          "name": "name_",
          "type": "string"
        },
        {
          "internalType": "string",
          "name": "symbol_",
          "type": "string"
        },
        {
          "internalType": "string",
          "name": "baseURI_",
          "type": "string"
        },
        {
          "internalType": "address",
          "name": "creator_",
          "type": "address"
        },
        {
          "internalType": "address",
          "name": "factory_",
          "type": "address"
        }
      ],
      "stateMutability": "nonpayable",
      "type": "constructor"
    },
    {
      "inputs": [
        {
          "internalType": "uint256",
          "name": "numerator",
          "type": "uint256"
        },
        {
          "internalType": "uint256",
          "name": "denominator",
          "type": "uint256"
        }
      ],
      "name": "ERC2981InvalidDefaultRoyalty",
      "type": "error"
    },
    {
      "inputs": [
        {
          "internalType": "address",
          "name": "receiver",
          "type": "address"
        }
      ],
      "name": "ERC2981InvalidDefaultRoyaltyReceiver",
      "type": "error"
    },
    {
      "inputs": [
        {
          "internalType": "uint256",
          "name": "tokenId",
          "type": "uint256"
        },
        {
          "internalType": "uint256",
          "name": "numerator",
          "type": "uint256"
        },
        {
          "internalType": "uint256",
          "name": "denominator",
          "type": "uint256"
        }
      ],
      "name": "ERC2981InvalidTokenRoyalty",
      "type": "error"
    },
    {
      "inputs": [
        {
          "internalType": "uint256",
          "name": "tokenId",
          "type": "uint256"
        },
        {
          "internalType": "address",
          "name": "receiver",
          "type": "address"
        }
      ],
      "name": "ERC2981InvalidTokenRoyaltyReceiver",
      "type": "error"
    },
    {
      "inputs": [
        {
          "internalType": "address",
          "name": "sender",
          "type": "address"
        },
        {
          "internalType": "uint256",
          "name": "tokenId",
          "type": "uint256"
        },
        {
          "internalType": "address",
          "name": "owner",
          "type": "address"
        }
      ],
      "name": "ERC721IncorrectOwner",
      "type": "error"
    },
    {
      "inputs": [
        {
          "internalType": "address",
          "name": "operator",
          "type": "address"
        },
        {
          "internalType": "uint256",
          "name": "tokenId",
          "type": "uint256"
        }
      ],
      "name": "ERC721InsufficientApproval",
      "type": "error"
    },
    {
      "inputs": [
        {
          "internalType": "address",
          "name": "approver",
          "type": "address"
        }
      ],
      "name": "ERC721InvalidApprover",
      "type": "error"
    },
    {
      "inputs": [
        {
          "internalType": "address",
          "name": "operator",
          "type": "address"
        }
      ],
      "name": "ERC721InvalidOperator",
      "type": "error"
    },
    {
      "inputs": [
        {
          "internalType": "address",
          "name": "owner",
          "type": "address"
        }
      ],
      "name": "ERC721InvalidOwner",
      "type": "error"
    },
    {
      "inputs": [
        {
          "internalType": "address",
          "name": "receiver",
          "type": "address"
        }
      ],
      "name": "ERC721InvalidReceiver",
      "type": "error"
    },
    {
      "inputs": [
        {
          "internalType": "address",
          "name": "sender",
          "type": "address"
        }
      ],
      "name": "ERC721InvalidSender",
      "type": "error"
    },
    {
      "inputs": [
        {
          "internalType": "uint256",
          "name": "tokenId",
          "type": "uint256"
        }
      ],
      "name": "ERC721NonexistentToken",
      "type": "error"
    },
    {
      "inputs": [
        {
          "internalType": "address",
          "name": "owner",
          "type": "address"
        }
      ],
      "name": "OwnableInvalidOwner",
      "type": "error"
    },
    {
      "inputs": [
        {
          "internalType": "address",
          "name": "account",
          "type": "address"
        }
      ],
      "name": "OwnableUnauthorizedAccount",
      "type": "error"
    },
    {
      "anonymous": false,
      "inputs": [
        {
          "indexed": true,
          "internalType": "address",
          "name": "owner",
          "type": "address"
        },
        {
          "indexed": true,
          "internalType": "address",
          "name": "approved",
          "type": "address"
        },
        {
          "indexed": true,
          "internalType": "uint256",
          "name": "tokenId",
          "type": "uint256"
        }
      ],
      "name": "Approval",
      "type": "event"
    },
    {
      "anonymous": false,
      "inputs": [
        {
          "indexed": true,
          "internalType": "address",
          "name": "owner",
          "type": "address"
        },
        {
          "indexed": true,
          "internalType": "address",
          "name": "operator",
          "type": "address"
        },
        {
          "indexed": false,
          "internalType": "bool",
          "name": "approved",
          "type": "bool"
        }
      ],
      "name": "ApprovalForAll",
      "type": "event"
    },
    {
      "anonymous": false,
      "inputs": [
        {
          "indexed": false,
          "internalType": "uint256",
          "name": "_fromTokenId",
          "type": "uint256"
        },
        {
          "indexed": false,
          "internalType": "uint256",
          "name": "_toTokenId",
          "type": "uint256"
        }
      ],
      "name": "BatchMetadataUpdate",
      "type": "event"
    },
    {
      "anonymous": false,
      "inputs": [
        {
          "indexed": false,
          "internalType": "uint256",
          "name": "_tokenId",
          "type": "uint256"
        }
      ],
      "name": "MetadataUpdate",
      "type": "event"
    },
    {
      "anonymous": false,
      "inputs": [
        {
          "indexed": true,
          "internalType": "address",
          "name": "previousOwner",
          "type": "address"
        },
        {
          "indexed": true,
          "internalType": "address",
          "name": "newOwner",
          "type": "address"
        }
      ],
      "name": "OwnershipTransferred",
      "type": "event"
    },
    {
      "anonymous": false,
      "inputs": [
        {
          "indexed": true,
          "internalType": "address",
          "name": "from",
          "type": "address"
        },
        {
          "indexed": true,
          "internalType": "address",
          "name": "to",
          "type": "address"
        },
        {
          "indexed": true,
          "internalType": "uint256",
          "name": "tokenId",
          "type": "uint256"
        }
      ],
      "name": "Transfer",
      "type": "event"
    },
    {
      "inputs": [
        {
          "internalType": "address",
          "name": "to",
          "type": "address"
        },
        {
          "internalType": "uint256",
          "name": "tokenId",
          "type": "uint256"
        }
      ],
      "name": "approve",
      "outputs": [],
      "stateMutability": "nonpayable",
      "type": "function"
    },
    {
      "inputs": [
        {
          "internalType": "address",
          "name": "owner",
          "type": "address"
        }
      ],
      "name": "balanceOf",
      "outputs": [
        {
          "internalType": "uint256",
          "name": "",
          "type": "uint256"
        }
      ],
      "stateMutability": "view",
      "type": "function"
    },
    {
      "inputs": [],
      "name": "factory",
      "outputs": [
        {
          "internalType": "address",
          "name": "",
          "type": "address"
        }
      ],
      "stateMutability": "view",
      "type": "function"
    },
    {
      "inputs": [
        {
          "internalType": "uint256",
          "name": "tokenId",
          "type": "uint256"
        }
      ],
      "name": "getApproved",
      "outputs": [
        {
          "internalType": "address",
          "name": "",
          "type": "address"
        }
      ],
      "stateMutability": "view",
      "type": "function"
    },
    {
      "inputs": [
        {
          "internalType": "address",
          "name": "owner",
          "type": "address"
        },
        {
          "internalType": "address",
          "name": "operator",
          "type": "address"
        }
      ],
      "name": "isApprovedForAll",
      "outputs": [
        {
          "internalType": "bool",
          "name": "",
          "type": "bool"
        }
      ],
      "stateMutability": "view",
      "type": "function"
    },
    {
      "inputs": [
        {
          "internalType": "address",
          "name": "to",
          "type": "address"
        },
        {
          "internalType": "string",
          "name": "uri",
          "type": "string"
        }
      ],
      "name": "mint",
      "outputs": [
        {
          "internalType": "uint256",
          "name": "",
          "type": "uint256"
        }
      ],
      "stateMutability": "payable",
      "type": "function"
    },
    {
      "inputs": [],
      "name": "name",
      "outputs": [
        {
          "internalType": "string",
          "name": "",
          "type": "string"
        }
      ],
      "stateMutability": "view",
      "type": "function"
    },
    {
      "inputs": [],
      "name": "owner",
      "outputs": [
        {
          "internalType": "address",
          "name": "",
          "type": "address"
        }
      ],
      "stateMutability": "view",
      "type": "function"
    },
    {
      "inputs": [
        {
          "internalType": "uint256",
          "name": "tokenId",
          "type": "uint256"
        }
      ],
      "name": "ownerOf",
      "outputs": [
        {
          "internalType": "address",
          "name": "",
          "type": "address"
        }
      ],
      "stateMutability": "view",
      "type": "function"
    },
    {
      "inputs": [],
      "name": "renounceOwnership",
      "outputs": [],
      "stateMutability": "nonpayable",
      "type": "function"
    },
    {
      "inputs": [
        {
          "internalType": "uint256",
          "name": "tokenId",
          "type": "uint256"
        },
        {
          "internalType": "uint256",
          "name": "salePrice",
          "type": "uint256"
        }
      ],
      "name": "royaltyInfo",
      "outputs": [
        {
          "internalType": "address",
          "name": "receiver",
          "type": "address"
        },
        {
          "internalType": "uint256",
          "name": "amount",
          "type": "uint256"
        }
      ],
      "stateMutability": "view",
      "type": "function"
    },
    {
      "inputs": [
        {
          "internalType": "address",
          "name": "from",
          "type": "address"
        },
        {
          "internalType": "address",
          "name": "to",
          "type": "address"
        },
        {
          "internalType": "uint256",
          "name": "tokenId",
          "type": "uint256"
        }
      ],
      "name": "safeTransferFrom",
      "outputs": [],
      "stateMutability": "nonpayable",
      "type": "function"
    },
    {
      "inputs": [
        {
          "internalType": "address",
          "name": "from",
          "type": "address"
        },
        {
          "internalType": "address",
          "name": "to",
          "type": "address"
        },
        {
          "internalType": "uint256",
          "name": "tokenId",
          "type": "uint256"
        },
        {
          "internalType": "bytes",
          "name": "data",
          "type": "bytes"
        }
      ],
      "name": "safeTransferFrom",
      "outputs": [],
      "stateMutability": "nonpayable",
      "type": "function"
    },
    {
      "inputs": [
        {
          "internalType": "address",
          "name": "operator",
          "type": "address"
        },
        {
          "internalType": "bool",
          "name": "approved",
          "type": "bool"
        }
      ],
      "name": "setApprovalForAll",
      "outputs": [],
      "stateMutability": "nonpayable",
      "type": "function"
    },
    {
      "inputs": [
        {
          "internalType": "bytes4",
          "name": "interfaceId",
          "type": "bytes4"
        }
      ],
      "name": "supportsInterface",
      "outputs": [
        {
          "internalType": "bool",
          "name": "",
          "type": "bool"
        }
      ],
      "stateMutability": "view",
      "type": "function"
    },
    {
      "inputs": [],
      "name": "symbol",
      "outputs": [
        {
          "internalType": "string",
          "name": "",
          "type": "string"
        }
      ],
      "stateMutability": "view",
      "type": "function"
    },
    {
      "inputs": [
        {
          "internalType": "uint256",
          "name": "tokenId",
          "type": "uint256"
        }
      ],
      "name": "tokenURI",
      "outputs": [
        {
          "internalType": "string",
          "name": "",
          "type": "string"
        }
      ],
      "stateMutability": "view",
      "type": "function"
    },
    {
      "inputs": [
        {
          "internalType": "address",
          "name": "from",
          "type": "address"
        },
        {
          "internalType": "address",
          "name": "to",
          "type": "address"
        },
        {
          "internalType": "uint256",
          "name": "tokenId",
          "type": "uint256"
        }
      ],
      "name": "transferFrom",
      "outputs": [],
      "stateMutability": "nonpayable",
      "type": "function"
    },
    {
      "inputs": [
        {
          "internalType": "address",
          "name": "newOwner",
          "type": "address"
        }
      ],
      "name": "transferOwnership",
      "outputs": [],
      "stateMutability": "nonpayable",
      "type": "function"
    }
  ],
  "bytecode": "0x60a06040526001600a5534801561001557600080fd5b5060405161399338038061399383398181016040528101906100379190610579565b81858581600090816100499190610869565b5080600190816100599190610869565b505050600073ffffffffffffffffffffffffffffffffffffffff168173ffffffffffffffffffffffffffffffffffffffff16036100ce5760006040517f1e4fbdf70000000000000000000000000000000000000000000000000000000081526004016100c5919061094a565b60405180910390fd5b6100dd8161012e60201b60201c565b508073ffffffffffffffffffffffffffffffffffffffff1660808173ffffffffffffffffffffffffffffffffffffffff1681525050610124826101f46101f460201b60201c565b50505050506109e6565b6000600960009054906101000a900473ffffffffffffffffffffffffffffffffffffffff16905081600960006101000a81548173ffffffffffffffffffffffffffffffffffffffff021916908373ffffffffffffffffffffffffffffffffffffffff1602179055508173ffffffffffffffffffffffffffffffffffffffff168173ffffffffffffffffffffffffffffffffffffffff167f8be0079c531659141344cd1fd0a4f28419497f9722a3daafe3b4186f6b6457e060405160405180910390a35050565b600061020461039c60201b60201c565b6bffffffffffffffffffffffff16905080826bffffffffffffffffffffffff1611156102695781816040517f6f483d090000000000000000000000000000000000000000000000000000000081526004016102609291906109bd565b60405180910390fd5b600073ffffffffffffffffffffffffffffffffffffffff168373ffffffffffffffffffffffffffffffffffffffff16036102db5760006040517fb6d9900a0000000000000000000000000000000000000000000000000000000081526004016102d2919061094a565b60405180910390fd5b60405180604001604052808473ffffffffffffffffffffffffffffffffffffffff168152602001836bffffffffffffffffffffffff16815250600760008201518160000160006101000a81548173ffffffffffffffffffffffffffffffffffffffff021916908373ffffffffffffffffffffffffffffffffffffffff16021790555060208201518160000160146101000a8154816bffffffffffffffffffffffff02191690836bffffffffffffffffffffffff160217905550905050505050565b6000612710905090565b6000604051905090565b600080fd5b600080fd5b600080fd5b600080fd5b6000601f19601f8301169050919050565b7f4e487b7100000000000000000000000000000000000000000000000000000000600052604160045260246000fd5b61040d826103c4565b810181811067ffffffffffffffff8211171561042c5761042b6103d5565b5b80604052505050565b600061043f6103a6565b905061044b8282610404565b919050565b600067ffffffffffffffff82111561046b5761046a6103d5565b5b610474826103c4565b9050602081019050919050565b60005b8381101561049f578082015181840152602081019050610484565b60008484015250505050565b60006104be6104b984610450565b610435565b9050828152602081018484840111156104da576104d96103bf565b5b6104e5848285610481565b509392505050565b600082601f830112610502576105016103ba565b5b81516105128482602086016104ab565b91505092915050565b600073ffffffffffffffffffffffffffffffffffffffff82169050919050565b60006105468261051b565b9050919050565b6105568161053b565b811461056157600080fd5b50565b6000815190506105738161054d565b92915050565b600080600080600060a08688031215610595576105946103b0565b5b600086015167ffffffffffffffff8111156105b3576105b26103b5565b5b6105bf888289016104ed565b955050602086015167ffffffffffffffff8111156105e0576105df6103b5565b5b6105ec888289016104ed565b945050604086015167ffffffffffffffff81111561060d5761060c6103b5565b5b610619888289016104ed565b935050606061062a88828901610564565b925050608061063b88828901610564565b9150509295509295909350565b600081519050919050565b7f4e487b7100000000000000000000000000000000000000000000000000000000600052602260045260246000fd5b6000600282049050600182168061069a57607f821691505b6020821081036106ad576106ac610653565b5b50919050565b60008190508160005260206000209050919050565b60006020601f8301049050919050565b600082821b905092915050565b6000600883026107157fffffffffffffffffffffffffffffffffffffffffffffffffffffffffffffffff826106d8565b61071f86836106d8565b95508019841693508086168417925050509392505050565b6000819050919050565b6000819050919050565b600061076661076161075c84610737565b610741565b610737565b9050919050565b6000819050919050565b6107808361074b565b61079461078c8261076d565b8484546106e5565b825550505050565b600090565b6107a961079c565b6107b4818484610777565b505050565b5b818110156107d8576107cd6000826107a1565b6001810190506107ba565b5050565b601f82111561081d576107ee816106b3565b6107f7846106c8565b81016020851015610806578190505b61081a610812856106c8565b8301826107b9565b50505b505050565b600082821c905092915050565b600061084060001984600802610822565b1980831691505092915050565b6000610859838361082f565b9150826002028217905092915050565b61087282610648565b67ffffffffffffffff81111561088b5761088a6103d5565b5b6108958254610682565b6108a08282856107dc565b600060209050601f8311600181146108d357600084156108c1578287015190505b6108cb858261084d565b865550610933565b601f1984166108e1866106b3565b60005b82811015610909578489015182556001820191506020850194506020810190506108e4565b868310156109265784890151610922601f89168261082f565b8355505b6001600288020188555050505b505050505050565b6109448161053b565b82525050565b600060208201905061095f600083018461093b565b92915050565b60006bffffffffffffffffffffffff82169050919050565b600061099861099361098e84610965565b610741565b610737565b9050919050565b6109a88161097d565b82525050565b6109b781610737565b82525050565b60006040820190506109d2600083018561099f565b6109df60208301846109ae565b9392505050565b608051612f84610a0f600039600081816109af015281816109e80152610abe0152612f846000f3fe6080604052600436106101145760003560e01c8063715018a6116100a0578063c45a015511610064578063c45a0155146103b0578063c87b56dd146103db578063d0def52114610418578063e985e9c514610448578063f2fde38b1461048557610114565b8063715018a6146102f15780638da5cb5b1461030857806395d89b4114610333578063a22cb4651461035e578063b88d4fde1461038757610114565b806323b872dd116100e757806323b872dd146101e75780632a55205a1461021057806342842e0e1461024e5780636352211e1461027757806370a08231146102b457610114565b806301ffc9a71461011957806306fdde0314610156578063081812fc14610181578063095ea7b3146101be575b600080fd5b34801561012557600080fd5b50610140600480360381019061013b9190612124565b6104ae565b60405161014d919061216c565b60405180910390f35b34801561016257600080fd5b5061016b6104c0565b6040516101789190612217565b60405180910390f35b34801561018d57600080fd5b506101a860048036038101906101a3919061226f565b610552565b6040516101b591906122dd565b60405180910390f35b3480156101ca57600080fd5b506101e560048036038101906101e09190612324565b61056e565b005b3480156101f357600080fd5b5061020e60048036038101906102099190612364565b610584565b005b34801561021c57600080fd5b50610237600480360381019061023291906123b7565b610686565b604051610245929190612406565b60405180910390f35b34801561025a57600080fd5b5061027560048036038101906102709190612364565b6107b6565b005b34801561028357600080fd5b5061029e6004803603810190610299919061226f565b6107d6565b6040516102ab91906122dd565b60405180910390f35b3480156102c057600080fd5b506102db60048036038101906102d6919061242f565b6107e8565b6040516102e8919061245c565b60405180910390f35b3480156102fd57600080fd5b506103066108a2565b005b34801561031457600080fd5b5061031d6108b6565b60405161032a91906122dd565b60405180910390f35b34801561033f57600080fd5b506103486108e0565b6040516103559190612217565b60405180910390f35b34801561036a57600080fd5b50610385600480360381019061038091906124a3565b610972565b005b34801561039357600080fd5b506103ae60048036038101906103a99190612618565b610988565b005b3480156103bc57600080fd5b506103c56109ad565b6040516103d291906122dd565b60405180910390f35b3480156103e757600080fd5b5061040260048036038101906103fd919061226f565b6109d1565b60405161040f9190612217565b60405180910390f35b610432600480360381019061042d91906126fb565b6109e3565b60405161043f919061245c565b60405180910390f35b34801561045457600080fd5b5061046f600480360381019061046a919061275b565b610d35565b60405161047c919061216c565b60405180910390f35b34801561049157600080fd5b506104ac60048036038101906104a7919061242f565b610dc9565b005b60006104b982610e4f565b9050919050565b6060600080546104cf906127ca565b80601f01602080910402602001604051908101604052809291908181526020018280546104fb906127ca565b80156105485780601f1061051d57610100808354040283529160200191610548565b820191906000526020600020905b81548152906001019060200180831161052b57829003601f168201915b5050505050905090565b600061055d82610ec9565b5061056782610f51565b9050919050565b610580828261057b610f8e565b610f96565b5050565b600073ffffffffffffffffffffffffffffffffffffffff168273ffffffffffffffffffffffffffffffffffffffff16036105f65760006040517f64a0ae920000000000000000000000000000000000000000000000000000000081526004016105ed91906122dd565b60405180910390fd5b600061060a8383610605610f8e565b610fa8565b90508373ffffffffffffffffffffffffffffffffffffffff168173ffffffffffffffffffffffffffffffffffffffff1614610680578382826040517f64283d7b000000000000000000000000000000000000000000000000000000008152600401610677939291906127fb565b60405180910390fd5b50505050565b600080600060086000868152602001908152602001600020905060008160000160009054906101000a900473ffffffffffffffffffffffffffffffffffffffff16905060008260000160149054906101000a90046bffffffffffffffffffffffff169050600073ffffffffffffffffffffffffffffffffffffffff168273ffffffffffffffffffffffffffffffffffffffff160361076757600760000160009054906101000a900473ffffffffffffffffffffffffffffffffffffffff169150600760000160149054906101000a90046bffffffffffffffffffffffff1690505b60006107716111c2565b6bffffffffffffffffffffffff16826bffffffffffffffffffffffff16886107999190612861565b6107a391906128d2565b9050828195509550505050509250929050565b6107d183838360405180602001604052806000815250610988565b505050565b60006107e182610ec9565b9050919050565b60008073ffffffffffffffffffffffffffffffffffffffff168273ffffffffffffffffffffffffffffffffffffffff160361085b5760006040517f89c62b6400000000000000000000000000000000000000000000000000000000815260040161085291906122dd565b60405180910390fd5b600360008373ffffffffffffffffffffffffffffffffffffffff1673ffffffffffffffffffffffffffffffffffffffff168152602001908152602001600020549050919050565b6108aa6111cc565b6108b46000611253565b565b6000600960009054906101000a900473ffffffffffffffffffffffffffffffffffffffff16905090565b6060600180546108ef906127ca565b80601f016020809104026020016040519081016040528092919081815260200182805461091b906127ca565b80156109685780601f1061093d57610100808354040283529160200191610968565b820191906000526020600020905b81548152906001019060200180831161094b57829003601f168201915b5050505050905090565b61098461097d610f8e565b8383611319565b5050565b610993848484610584565b6109a761099e610f8e565b85858585611488565b50505050565b7f000000000000000000000000000000000000000000000000000000000000000081565b60606109dc82611639565b9050919050565b6000807f000000000000000000000000000000000000000000000000000000000000000073ffffffffffffffffffffffffffffffffffffffff1663737054bc6040518163ffffffff1660e01b8152600401602060405180830381865afa158015610a51573d6000803e3d6000fd5b505050506040513d601f19601f82011682018060405250810190610a759190612918565b905080341015610aba576040517f08c379a0000000000000000000000000000000000000000000000000000000008152600401610ab190612991565b60405180910390fd5b60007f000000000000000000000000000000000000000000000000000000000000000073ffffffffffffffffffffffffffffffffffffffff16638da5cb5b6040518163ffffffff1660e01b8152600401602060405180830381865afa158015610b27573d6000803e3d6000fd5b505050506040513d601f19601f82011682018060405250810190610b4b91906129c6565b73ffffffffffffffffffffffffffffffffffffffff1682604051610b6e90612a24565b60006040518083038185875af1925050503d8060008114610bab576040519150601f19603f3d011682016040523d82523d6000602084013e610bb0565b606091505b5050905080610bf4576040517f08c379a0000000000000000000000000000000000000000000000000000000008152600401610beb90612a85565b60405180910390fd5b6000600a6000815480929190610c0990612aa5565b919050559050610c19878261174c565b610c678187878080601f016020809104026020016040519081016040528093929190818152602001838380828437600081840152601f19601f8201169050808301925050505050505061176a565b82341115610d285760003373ffffffffffffffffffffffffffffffffffffffff168434610c949190612aed565b604051610ca090612a24565b60006040518083038185875af1925050503d8060008114610cdd576040519150601f19603f3d011682016040523d82523d6000602084013e610ce2565b606091505b5050905080610d26576040517f08c379a0000000000000000000000000000000000000000000000000000000008152600401610d1d90612b6d565b60405180910390fd5b505b8093505050509392505050565b6000600560008473ffffffffffffffffffffffffffffffffffffffff1673ffffffffffffffffffffffffffffffffffffffff16815260200190815260200160002060008373ffffffffffffffffffffffffffffffffffffffff1673ffffffffffffffffffffffffffffffffffffffff16815260200190815260200160002060009054906101000a900460ff16905092915050565b610dd16111cc565b600073ffffffffffffffffffffffffffffffffffffffff168173ffffffffffffffffffffffffffffffffffffffff1603610e435760006040517f1e4fbdf7000000000000000000000000000000000000000000000000000000008152600401610e3a91906122dd565b60405180910390fd5b610e4c81611253565b50565b60007f2a55205a000000000000000000000000000000000000000000000000000000007bffffffffffffffffffffffffffffffffffffffffffffffffffffffff1916827bffffffffffffffffffffffffffffffffffffffffffffffffffffffff19161480610ec25750610ec1826117c6565b5b9050919050565b600080610ed583611827565b9050600073ffffffffffffffffffffffffffffffffffffffff168173ffffffffffffffffffffffffffffffffffffffff1603610f4857826040517f7e273289000000000000000000000000000000000000000000000000000000008152600401610f3f919061245c565b60405180910390fd5b80915050919050565b60006004600083815260200190815260200160002060009054906101000a900473ffffffffffffffffffffffffffffffffffffffff169050919050565b600033905090565b610fa38383836001611864565b505050565b600080610fb484611827565b9050600073ffffffffffffffffffffffffffffffffffffffff168373ffffffffffffffffffffffffffffffffffffffff1614610ff657610ff5818486611a29565b5b600073ffffffffffffffffffffffffffffffffffffffff168173ffffffffffffffffffffffffffffffffffffffff161461108757611038600085600080611864565b6001600360008373ffffffffffffffffffffffffffffffffffffffff1673ffffffffffffffffffffffffffffffffffffffff168152602001908152602001600020600082825403925050819055505b600073ffffffffffffffffffffffffffffffffffffffff168573ffffffffffffffffffffffffffffffffffffffff161461110a576001600360008773ffffffffffffffffffffffffffffffffffffffff1673ffffffffffffffffffffffffffffffffffffffff168152602001908152602001600020600082825401925050819055505b846002600086815260200190815260200160002060006101000a81548173ffffffffffffffffffffffffffffffffffffffff021916908373ffffffffffffffffffffffffffffffffffffffff160217905550838573ffffffffffffffffffffffffffffffffffffffff168273ffffffffffffffffffffffffffffffffffffffff167fddf252ad1be2c89b69c2b068fc378daa952ba7f163c4a11628f55a4df523b3ef60405160405180910390a4809150509392505050565b6000612710905090565b6111d4610f8e565b73ffffffffffffffffffffffffffffffffffffffff166111f26108b6565b73ffffffffffffffffffffffffffffffffffffffff161461125157611215610f8e565b6040517f118cdaa700000000000000000000000000000000000000000000000000000000815260040161124891906122dd565b60405180910390fd5b565b6000600960009054906101000a900473ffffffffffffffffffffffffffffffffffffffff16905081600960006101000a81548173ffffffffffffffffffffffffffffffffffffffff021916908373ffffffffffffffffffffffffffffffffffffffff1602179055508173ffffffffffffffffffffffffffffffffffffffff168173ffffffffffffffffffffffffffffffffffffffff167f8be0079c531659141344cd1fd0a4f28419497f9722a3daafe3b4186f6b6457e060405160405180910390a35050565b600073ffffffffffffffffffffffffffffffffffffffff168273ffffffffffffffffffffffffffffffffffffffff160361138a57816040517f5b08ba1800000000000000000000000000000000000000000000000000000000815260040161138191906122dd565b60405180910390fd5b80600560008573ffffffffffffffffffffffffffffffffffffffff1673ffffffffffffffffffffffffffffffffffffffff16815260200190815260200160002060008473ffffffffffffffffffffffffffffffffffffffff1673ffffffffffffffffffffffffffffffffffffffff16815260200190815260200160002060006101000a81548160ff0219169083151502179055508173ffffffffffffffffffffffffffffffffffffffff168373ffffffffffffffffffffffffffffffffffffffff167f17307eab39ab6107e8899845ad3d59bd9653f200f220920489ca2b5937696c318360405161147b919061216c565b60405180910390a3505050565b60008373ffffffffffffffffffffffffffffffffffffffff163b1115611632578273ffffffffffffffffffffffffffffffffffffffff1663150b7a02868685856040518563ffffffff1660e01b81526004016114e79493929190612be2565b6020604051808303816000875af192505050801561152357506040513d601f19601f820116820180604052508101906115209190612c43565b60015b6115a7573d8060008114611553576040519150601f19603f3d011682016040523d82523d6000602084013e611558565b606091505b50600081510361159f57836040517f64a0ae9200000000000000000000000000000000000000000000000000000000815260040161159691906122dd565b60405180910390fd5b805160208201fd5b63150b7a0260e01b7bffffffffffffffffffffffffffffffffffffffffffffffffffffffff1916817bffffffffffffffffffffffffffffffffffffffffffffffffffffffff19161461163057836040517f64a0ae9200000000000000000000000000000000000000000000000000000000815260040161162791906122dd565b60405180910390fd5b505b5050505050565b606061164482610ec9565b506000600660008481526020019081526020016000208054611665906127ca565b80601f0160208091040260200160405190810160405280929190818152602001828054611691906127ca565b80156116de5780601f106116b3576101008083540402835291602001916116de565b820191906000526020600020905b8154815290600101906020018083116116c157829003601f168201915b5050505050905060006116ef611aed565b90506000815103611704578192505050611747565b600082511115611739578082604051602001611721929190612cac565b60405160208183030381529060405292505050611747565b61174284611b04565b925050505b919050565b611766828260405180602001604052806000815250611b6d565b5050565b8060066000848152602001908152602001600020908161178a9190612e7c565b507ff8e1a15aba9398e019f0b49df1a4fde98ee17ae345cb5f6b5e2c27f5033e8ce7826040516117ba919061245c565b60405180910390a15050565b6000634906490660e01b7bffffffffffffffffffffffffffffffffffffffffffffffffffffffff1916827bffffffffffffffffffffffffffffffffffffffffffffffffffffffff19161480611820575061181f82611b91565b5b9050919050565b60006002600083815260200190815260200160002060009054906101000a900473ffffffffffffffffffffffffffffffffffffffff169050919050565b808061189d5750600073ffffffffffffffffffffffffffffffffffffffff168273ffffffffffffffffffffffffffffffffffffffff1614155b156119d15760006118ad84610ec9565b9050600073ffffffffffffffffffffffffffffffffffffffff168373ffffffffffffffffffffffffffffffffffffffff161415801561191857508273ffffffffffffffffffffffffffffffffffffffff168173ffffffffffffffffffffffffffffffffffffffff1614155b801561192b57506119298184610d35565b155b1561196d57826040517fa9fbf51f00000000000000000000000000000000000000000000000000000000815260040161196491906122dd565b60405180910390fd5b81156119cf57838573ffffffffffffffffffffffffffffffffffffffff168273ffffffffffffffffffffffffffffffffffffffff167f8c5be1e5ebec7d5bd14f71427d1e84f3dd0314c0f7b2291e5b200ac8c7c3b92560405160405180910390a45b505b836004600085815260200190815260200160002060006101000a81548173ffffffffffffffffffffffffffffffffffffffff021916908373ffffffffffffffffffffffffffffffffffffffff16021790555050505050565b611a34838383611c73565b611ae857600073ffffffffffffffffffffffffffffffffffffffff168373ffffffffffffffffffffffffffffffffffffffff1603611aa957806040517f7e273289000000000000000000000000000000000000000000000000000000008152600401611aa0919061245c565b60405180910390fd5b81816040517f177e802f000000000000000000000000000000000000000000000000000000008152600401611adf929190612406565b60405180910390fd5b505050565b606060405180602001604052806000815250905090565b6060611b0f82610ec9565b506000611b1a611aed565b90506000815111611b3a5760405180602001604052806000815250611b65565b80611b4484611d34565b604051602001611b55929190612cac565b6040516020818303038152906040525b915050919050565b611b778383611e02565b611b8c611b82610f8e565b6000858585611488565b505050565b60007f80ac58cd000000000000000000000000000000000000000000000000000000007bffffffffffffffffffffffffffffffffffffffffffffffffffffffff1916827bffffffffffffffffffffffffffffffffffffffffffffffffffffffff19161480611c5c57507f5b5e139f000000000000000000000000000000000000000000000000000000007bffffffffffffffffffffffffffffffffffffffffffffffffffffffff1916827bffffffffffffffffffffffffffffffffffffffffffffffffffffffff1916145b80611c6c5750611c6b82611efb565b5b9050919050565b60008073ffffffffffffffffffffffffffffffffffffffff168373ffffffffffffffffffffffffffffffffffffffff1614158015611d2b57508273ffffffffffffffffffffffffffffffffffffffff168473ffffffffffffffffffffffffffffffffffffffff161480611cec5750611ceb8484610d35565b5b80611d2a57508273ffffffffffffffffffffffffffffffffffffffff16611d1283610f51565b73ffffffffffffffffffffffffffffffffffffffff16145b5b90509392505050565b606060006001611d4384611f65565b01905060008167ffffffffffffffff811115611d6257611d616124ed565b5b6040519080825280601f01601f191660200182016040528015611d945781602001600182028036833780820191505090505b509050600082602083010190505b600115611df7578080600190039150507f3031323334353637383961626364656600000000000000000000000000000000600a86061a8153600a8581611deb57611dea6128a3565b5b04945060008503611da2575b819350505050919050565b600073ffffffffffffffffffffffffffffffffffffffff168273ffffffffffffffffffffffffffffffffffffffff1603611e745760006040517f64a0ae92000000000000000000000000000000000000000000000000000000008152600401611e6b91906122dd565b60405180910390fd5b6000611e8283836000610fa8565b9050600073ffffffffffffffffffffffffffffffffffffffff168173ffffffffffffffffffffffffffffffffffffffff1614611ef65760006040517f73c6ac6e000000000000000000000000000000000000000000000000000000008152600401611eed91906122dd565b60405180910390fd5b505050565b60007f01ffc9a7000000000000000000000000000000000000000000000000000000007bffffffffffffffffffffffffffffffffffffffffffffffffffffffff1916827bffffffffffffffffffffffffffffffffffffffffffffffffffffffff1916149050919050565b600080600090507a184f03e93ff9f4daa797ed6e38ed64bf6a1f0100000000000000008310611fc3577a184f03e93ff9f4daa797ed6e38ed64bf6a1f0100000000000000008381611fb957611fb86128a3565b5b0492506040810190505b6d04ee2d6d415b85acef81000000008310612000576d04ee2d6d415b85acef81000000008381611ff657611ff56128a3565b5b0492506020810190505b662386f26fc10000831061202f57662386f26fc100008381612025576120246128a3565b5b0492506010810190505b6305f5e1008310612058576305f5e100838161204e5761204d6128a3565b5b0492506008810190505b612710831061207d576127108381612073576120726128a3565b5b0492506004810190505b606483106120a05760648381612096576120956128a3565b5b0492506002810190505b600a83106120af576001810190505b80915050919050565b6000604051905090565b600080fd5b600080fd5b60007fffffffff0000000000000000000000000000000000000000000000000000000082169050919050565b612101816120cc565b811461210c57600080fd5b50565b60008135905061211e816120f8565b92915050565b60006020828403121561213a576121396120c2565b5b60006121488482850161210f565b91505092915050565b60008115159050919050565b61216681612151565b82525050565b6000602082019050612181600083018461215d565b92915050565b600081519050919050565b600082825260208201905092915050565b60005b838110156121c15780820151818401526020810190506121a6565b60008484015250505050565b6000601f19601f8301169050919050565b60006121e982612187565b6121f38185612192565b93506122038185602086016121a3565b61220c816121cd565b840191505092915050565b6000602082019050818103600083015261223181846121de565b905092915050565b6000819050919050565b61224c81612239565b811461225757600080fd5b50565b60008135905061226981612243565b92915050565b600060208284031215612285576122846120c2565b5b60006122938482850161225a565b91505092915050565b600073ffffffffffffffffffffffffffffffffffffffff82169050919050565b60006122c78261229c565b9050919050565b6122d7816122bc565b82525050565b60006020820190506122f260008301846122ce565b92915050565b612301816122bc565b811461230c57600080fd5b50565b60008135905061231e816122f8565b92915050565b6000806040838503121561233b5761233a6120c2565b5b60006123498582860161230f565b925050602061235a8582860161225a565b9150509250929050565b60008060006060848603121561237d5761237c6120c2565b5b600061238b8682870161230f565b935050602061239c8682870161230f565b92505060406123ad8682870161225a565b9150509250925092565b600080604083850312156123ce576123cd6120c2565b5b60006123dc8582860161225a565b92505060206123ed8582860161225a565b9150509250929050565b61240081612239565b82525050565b600060408201905061241b60008301856122ce565b61242860208301846123f7565b9392505050565b600060208284031215612445576124446120c2565b5b60006124538482850161230f565b91505092915050565b600060208201905061247160008301846123f7565b92915050565b61248081612151565b811461248b57600080fd5b50565b60008135905061249d81612477565b92915050565b600080604083850312156124ba576124b96120c2565b5b60006124c88582860161230f565b92505060206124d98582860161248e565b9150509250929050565b600080fd5b600080fd5b7f4e487b7100000000000000000000000000000000000000000000000000000000600052604160045260246000fd5b612525826121cd565b810181811067ffffffffffffffff82111715612544576125436124ed565b5b80604052505050565b60006125576120b8565b9050612563828261251c565b919050565b600067ffffffffffffffff821115612583576125826124ed565b5b61258c826121cd565b9050602081019050919050565b82818337600083830152505050565b60006125bb6125b684612568565b61254d565b9050828152602081018484840111156125d7576125d66124e8565b5b6125e2848285612599565b509392505050565b600082601f8301126125ff576125fe6124e3565b5b813561260f8482602086016125a8565b91505092915050565b60008060008060808587031215612632576126316120c2565b5b60006126408782880161230f565b94505060206126518782880161230f565b93505060406126628782880161225a565b925050606085013567ffffffffffffffff811115612683576126826120c7565b5b61268f878288016125ea565b91505092959194509250565b600080fd5b600080fd5b60008083601f8401126126bb576126ba6124e3565b5b8235905067ffffffffffffffff8111156126d8576126d761269b565b5b6020830191508360018202830111156126f4576126f36126a0565b5b9250929050565b600080600060408486031215612714576127136120c2565b5b60006127228682870161230f565b935050602084013567ffffffffffffffff811115612743576127426120c7565b5b61274f868287016126a5565b92509250509250925092565b60008060408385031215612772576127716120c2565b5b60006127808582860161230f565b92505060206127918582860161230f565b9150509250929050565b7f4e487b7100000000000000000000000000000000000000000000000000000000600052602260045260246000fd5b600060028204905060018216806127e257607f821691505b6020821081036127f5576127f461279b565b5b50919050565b600060608201905061281060008301866122ce565b61281d60208301856123f7565b61282a60408301846122ce565b949350505050565b7f4e487b7100000000000000000000000000000000000000000000000000000000600052601160045260246000fd5b600061286c82612239565b915061287783612239565b925082820261288581612239565b9150828204841483151761289c5761289b612832565b5b5092915050565b7f4e487b7100000000000000000000000000000000000000000000000000000000600052601260045260246000fd5b60006128dd82612239565b91506128e883612239565b9250826128f8576128f76128a3565b5b828204905092915050565b60008151905061291281612243565b92915050565b60006020828403121561292e5761292d6120c2565b5b600061293c84828501612903565b91505092915050565b7f496e73756666696369656e74206d696e74206665650000000000000000000000600082015250565b600061297b601583612192565b915061298682612945565b602082019050919050565b600060208201905081810360008301526129aa8161296e565b9050919050565b6000815190506129c0816122f8565b92915050565b6000602082840312156129dc576129db6120c2565b5b60006129ea848285016129b1565b91505092915050565b600081905092915050565b50565b6000612a0e6000836129f3565b9150612a19826129fe565b600082019050919050565b6000612a2f82612a01565b9150819050919050565b7f50726f746f636f6c20666565206661696c656400000000000000000000000000600082015250565b6000612a6f601383612192565b9150612a7a82612a39565b602082019050919050565b60006020820190508181036000830152612a9e81612a62565b9050919050565b6000612ab082612239565b91507fffffffffffffffffffffffffffffffffffffffffffffffffffffffffffffffff8203612ae257612ae1612832565b5b600182019050919050565b6000612af882612239565b9150612b0383612239565b9250828203905081811115612b1b57612b1a612832565b5b92915050565b7f526566756e64206661696c656400000000000000000000000000000000000000600082015250565b6000612b57600d83612192565b9150612b6282612b21565b602082019050919050565b60006020820190508181036000830152612b8681612b4a565b9050919050565b600081519050919050565b600082825260208201905092915050565b6000612bb482612b8d565b612bbe8185612b98565b9350612bce8185602086016121a3565b612bd7816121cd565b840191505092915050565b6000608082019050612bf760008301876122ce565b612c0460208301866122ce565b612c1160408301856123f7565b8181036060830152612c238184612ba9565b905095945050505050565b600081519050612c3d816120f8565b92915050565b600060208284031215612c5957612c586120c2565b5b6000612c6784828501612c2e565b91505092915050565b600081905092915050565b6000612c8682612187565b612c908185612c70565b9350612ca08185602086016121a3565b80840191505092915050565b6000612cb88285612c7b565b9150612cc48284612c7b565b91508190509392505050565b60008190508160005260206000209050919050565b60006020601f8301049050919050565b600082821b905092915050565b600060088302612d327fffffffffffffffffffffffffffffffffffffffffffffffffffffffffffffffff82612cf5565b612d3c8683612cf5565b95508019841693508086168417925050509392505050565b6000819050919050565b6000612d79612d74612d6f84612239565b612d54565b612239565b9050919050565b6000819050919050565b612d9383612d5e565b612da7612d9f82612d80565b848454612d02565b825550505050565b600090565b612dbc612daf565b612dc7818484612d8a565b505050565b5b81811015612deb57612de0600082612db4565b600181019050612dcd565b5050565b601f821115612e3057612e0181612cd0565b612e0a84612ce5565b81016020851015612e19578190505b612e2d612e2585612ce5565b830182612dcc565b50505b505050565b600082821c905092915050565b6000612e5360001984600802612e35565b1980831691505092915050565b6000612e6c8383612e42565b9150826002028217905092915050565b612e8582612187565b67ffffffffffffffff811115612e9e57612e9d6124ed565b5b612ea882546127ca565b612eb3828285612def565b600060209050601f831160018114612ee65760008415612ed4578287015190505b612ede8582612e60565b865550612f46565b601f198416612ef486612cd0565b60005b82811015612f1c57848901518255600182019150602085019450602081019050612ef7565b86831015612f395784890151612f35601f891682612e42565b8355505b6001600288020188555050505b50505050505056fea2646970667358221220a5b60d5436a911ce02f9e8c28fa4ef8fe67b16f291ced72bb82a54825512d2cb64736f6c634300081c0033",
  "linkReferences": {},
  "deployedLinkReferences": {}
}