{
  "_format": "hh-sol-artifact-1",
  "contractName": "Marketplace",
  "sourceName": "contracts/Marketplace.sol",
  "abi": [
    {
      "inputs": [],
      "stateMutability": "nonpayable",
      "type": "constructor"
    },
    {
      "inputs": [
        {
          "internalType": "address",
          "name": "owner",
          "type": "address"
        }
      ],
      "name": "OwnableInvalidOwner",
      "type": "error"
    },
    {
      "inputs": [
        {
          "internalType": "address",
          "name": "account",
          "type": "address"
        }
      ],
      "name": "OwnableUnauthorizedAccount",
      "type": "error"
    },
    {
      "inputs": [],
      "name": "ReentrancyGuardReentrantCall",
      "type": "error"
    },
    {
      "anonymous": false,
      "inputs": [
        {
          "indexed": true,
          "internalType": "uint256",
          "name": "listingId",
          "type": "uint256"
        },
        {
          "indexed": true,
          "internalType": "address",
          "name": "bidder",
          "type": "address"
        },
        {
          "indexed": false,
          "internalType": "uint256",
          "name": "amount",
          "type": "uint256"
        }
      ],
      "name": "Bid",
      "type": "event"
    },
    {
      "anonymous": false,
      "inputs": [
        {
          "indexed": true,
          "internalType": "uint256",
          "name": "listingId",
          "type": "uint256"
        },
        {
          "indexed": true,
          "internalType": "address",
          "name": "seller",
          "type": "address"
        },
        {
          "indexed": true,
          "internalType": "address",
          "name": "nft",
          "type": "address"
        },
        {
          "indexed": false,
          "internalType": "uint256",
          "name": "tokenId",
          "type": "uint256"
        },
        {
          "indexed": false,
          "internalType": "uint256",
          "name": "price",
          "type": "uint256"
        },
        {
          "indexed": false,
          "internalType": "enum Marketplace.SaleType",
          "name": "saleType",
          "type": "uint8"
        }
      ],
      "name": "ListingCreated",
      "type": "event"
    },
    {
      "anonymous": false,
      "inputs": [
        {
          "indexed": true,
          "internalType": "address",
          "name": "previousOwner",
          "type": "address"
        },
        {
          "indexed": true,
          "internalType": "address",
          "name": "newOwner",
          "type": "address"
        }
      ],
      "name": "OwnershipTransferred",
      "type": "event"
    },
    {
      "anonymous": false,
      "inputs": [
        {
          "indexed": true,
          "internalType": "uint256",
          "name": "listingId",
          "type": "uint256"
        },
        {
          "indexed": true,
          "internalType": "address",
          "name": "buyer",
          "type": "address"
        },
        {
          "indexed": false,
          "internalType": "uint256",
          "name": "amount",
          "type": "uint256"
        }
      ],
      "name": "Sale",
      "type": "event"
    },
    {
      "inputs": [
        {
          "internalType": "uint256",
          "name": "",
          "type": "uint256"
        }
      ],
      "name": "auctions",
      "outputs": [
        {
          "internalType": "uint256",
          "name": "endTime",
          "type": "uint256"
        },
        {
          "internalType": "address",
          "name": "highestBidder",
          "type": "address"
        },
        {
          "internalType": "uint256",
          "name": "highestBid",
          "type": "uint256"
        },
        {
          "internalType": "bool",
          "name": "finalized",
          "type": "bool"
        }
      ],
      "stateMutability": "view",
      "type": "function"
    },
    {
      "inputs": [
        {
          "internalType": "uint256",
          "name": "listingId",
          "type": "uint256"
        }
      ],
      "name": "bid",
      "outputs": [],
      "stateMutability": "payable",
      "type": "function"
    },
    {
      "inputs": [
        {
          "internalType": "uint256",
          "name": "listingId",
          "type": "uint256"
        }
      ],
      "name": "buy",
      "outputs": [],
      "stateMutability": "payable",
      "type": "function"
    },
    {
      "inputs": [
        {
          "internalType": "uint256",
          "name": "listingId",
          "type": "uint256"
        }
      ],
      "name": "finalizeAuction",
      "outputs": [],
      "stateMutability": "nonpayable",
      "type": "function"
    },
    {
      "inputs": [
        {
          "internalType": "address",
          "name": "nft",
          "type": "address"
        },
        {
          "internalType": "uint256",
          "name": "tokenId",
          "type": "uint256"
        },
        {
          "internalType": "uint256",
          "name": "minPrice",
          "type": "uint256"
        },
        {
          "internalType": "uint256",
          "name": "duration",
          "type": "uint256"
        }
      ],
      "name": "listAuction",
      "outputs": [],
      "stateMutability": "nonpayable",
      "type": "function"
    },
    {
      "inputs": [
        {
          "internalType": "address",
          "name": "nft",
          "type": "address"
        },
        {
          "internalType": "uint256",
          "name": "tokenId",
          "type": "uint256"
        },
        {
          "internalType": "uint256",
          "name": "price",
          "type": "uint256"
        }
      ],
      "name": "listFixedPrice",
      "outputs": [],
      "stateMutability": "nonpayable",
      "type": "function"
    },
    {
      "inputs": [
        {
          "internalType": "uint256",
          "name": "",
          "type": "uint256"
        }
      ],
      "name": "listings",
      "outputs": [
        {
          "internalType": "address",
          "name": "seller",
          "type": "address"
        },
        {
          "internalType": "address",
          "name": "nft",
          "type": "address"
        },
        {
          "internalType": "uint256",
          "name": "tokenId",
          "type": "uint256"
        },
        {
          "internalType": "uint256",
          "name": "price",
          "type": "uint256"
        },
        {
          "internalType": "enum Marketplace.SaleType",
          "name": "saleType",
          "type": "uint8"
        },
        {
          "internalType": "bool",
          "name": "active",
          "type": "bool"
        }
      ],
      "stateMutability": "view",
      "type": "function"
    },
    {
      "inputs": [],
      "name": "nextListingId",
      "outputs": [
        {
          "internalType": "uint256",
          "name": "",
          "type": "uint256"
        }
      ],
      "stateMutability": "view",
      "type": "function"
    },
    {
      "inputs": [],
      "name": "owner",
      "outputs": [
        {
          "internalType": "address",
          "name": "",
          "type": "address"
        }
      ],
      "stateMutability": "view",
      "type": "function"
    },
    {
      "inputs": [
        {
          "internalType": "address",
          "name": "",
          "type": "address"
        }
      ],
      "name": "pendingWithdrawals",
      "outputs": [
        {
          "internalType": "uint256",
          "name": "",
          "type": "uint256"
        }
      ],
      "stateMutability": "view",
      "type": "function"
    },
    {
      "inputs": [],
      "name": "platformFeeBps",
      "outputs": [
        {
          "internalType": "uint256",
          "name": "",
          "type": "uint256"
        }
      ],
      "stateMutability": "view",
      "type": "function"
    },
    {
      "inputs": [],
      "name": "platformFeesAccrued",
      "outputs": [
        {
          "internalType": "uint256",
          "name": "",
          "type": "uint256"
        }
      ],
      "stateMutability": "view",
      "type": "function"
    },
    {
      "inputs": [],
      "name": "renounceOwnership",
      "outputs": [],
      "stateMutability": "nonpayable",
      "type": "function"
    },
    {
      "inputs": [
        {
          "internalType": "address",
          "name": "newOwner",
          "type": "address"
        }
      ],
      "name": "transferOwnership",
      "outputs": [],
      "stateMutability": "nonpayable",
      "type": "function"
    },
    {
      "inputs": [],
      "name": "withdraw",
      "outputs": [],
      "stateMutability": "nonpayable",
      "type": "function"
    },
    {
      "inputs": [],
      "name": "withdrawPlatformFees",
      "outputs": [],
      "stateMutability": "nonpayable",
      "type": "function"
    }
  ],
  "bytecode": "0x6080604052600160055560fa60065534801561001a57600080fd5b50336001600081905550600073ffffffffffffffffffffffffffffffffffffffff168173ffffffffffffffffffffffffffffffffffffffff16036100965760006040517f1e4fbdf700000000000000000000000000000000000000000000000000000000815260040161008d91906101b2565b60405180910390fd5b6100a5816100ab60201b60201c565b506101cd565b6000600160009054906101000a900473ffffffffffffffffffffffffffffffffffffffff16905081600160006101000a81548173ffffffffffffffffffffffffffffffffffffffff021916908373ffffffffffffffffffffffffffffffffffffffff1602179055508173ffffffffffffffffffffffffffffffffffffffff168173ffffffffffffffffffffffffffffffffffffffff167f8be0079c531659141344cd1fd0a4f28419497f9722a3daafe3b4186f6b6457e060405160405180910390a35050565b600073ffffffffffffffffffffffffffffffffffffffff82169050919050565b600061019c82610171565b9050919050565b6101ac81610191565b82525050565b60006020820190506101c760008301846101a3565b92915050565b612220806101dc6000396000f3fe6080604052600436106100f35760003560e01c8063946080e71161008a578063de74e57b11610059578063de74e57b146102b3578063e8083863146102f5578063f2fde38b1461031e578063f3f4370314610347576100f3565b8063946080e71461022c578063aaccf1ec14610255578063d0b7830b14610280578063d96a094a14610297576100f3565b8063571a26a0116100c6578063571a26a01461018157806370224bb9146101c1578063715018a6146101ea5780638da5cb5b14610201576100f3565b806322163b86146100f857806322dcd13e146101235780633ccfd60b1461014e578063454a2ab314610165575b600080fd5b34801561010457600080fd5b5061010d610384565b60405161011a9190611891565b60405180910390f35b34801561012f57600080fd5b5061013861038a565b6040516101459190611891565b60405180910390f35b34801561015a57600080fd5b50610163610390565b005b61017f600480360381019061017a91906118dd565b61051c565b005b34801561018d57600080fd5b506101a860048036038101906101a391906118dd565b610777565b6040516101b89493929190611966565b60405180910390f35b3480156101cd57600080fd5b506101e860048036038101906101e391906119d7565b6107d4565b005b3480156101f657600080fd5b506101ff6107e8565b005b34801561020d57600080fd5b506102166107fc565b6040516102239190611a3e565b60405180910390f35b34801561023857600080fd5b50610253600480360381019061024e9190611a59565b610826565b005b34801561026157600080fd5b5061026a610839565b6040516102779190611891565b60405180910390f35b34801561028c57600080fd5b5061029561083f565b005b6102b160048036038101906102ac91906118dd565b61090d565b005b3480156102bf57600080fd5b506102da60048036038101906102d591906118dd565b610ce9565b6040516102ec96959493929190611b23565b60405180910390f35b34801561030157600080fd5b5061031c600480360381019061031791906118dd565b610d7f565b005b34801561032a57600080fd5b5061034560048036038101906103409190611b84565b6112c0565b005b34801561035357600080fd5b5061036e60048036038101906103699190611b84565b611346565b60405161037b9190611891565b60405180910390f35b60075481565b60065481565b61039861135e565b6000600460003373ffffffffffffffffffffffffffffffffffffffff1673ffffffffffffffffffffffffffffffffffffffff1681526020019081526020016000205490506000811161041f576040517f08c379a000000000000000000000000000000000000000000000000000000000815260040161041690611c0e565b60405180910390fd5b6000600460003373ffffffffffffffffffffffffffffffffffffffff1673ffffffffffffffffffffffffffffffffffffffff1681526020019081526020016000208190555060003373ffffffffffffffffffffffffffffffffffffffff168260405161048a90611c5f565b60006040518083038185875af1925050503d80600081146104c7576040519150601f19603f3d011682016040523d82523d6000602084013e6104cc565b606091505b5050905080610510576040517f08c379a000000000000000000000000000000000000000000000000000000000815260040161050790611cc0565b60405180910390fd5b505061051a6113a4565b565b61052461135e565b600060036000838152602001908152602001600020905060006002600084815260200190815260200160002090508060040160019054906101000a900460ff1680156105735750816000015442105b6105b2576040517f08c379a00000000000000000000000000000000000000000000000000000000081526004016105a990611d2c565b60405180910390fd5b816002015434116105f8576040517f08c379a00000000000000000000000000000000000000000000000000000000081526004016105ef90611d98565b60405180910390fd5b600073ffffffffffffffffffffffffffffffffffffffff168260010160009054906101000a900473ffffffffffffffffffffffffffffffffffffffff1673ffffffffffffffffffffffffffffffffffffffff16146106cf578160020154600460008460010160009054906101000a900473ffffffffffffffffffffffffffffffffffffffff1673ffffffffffffffffffffffffffffffffffffffff1673ffffffffffffffffffffffffffffffffffffffff16815260200190815260200160002060008282546106c79190611de7565b925050819055505b338260010160006101000a81548173ffffffffffffffffffffffffffffffffffffffff021916908373ffffffffffffffffffffffffffffffffffffffff1602179055503482600201819055503373ffffffffffffffffffffffffffffffffffffffff16837fdcd726e11f8b5e160f00290f0fe3a1abb547474e53a8e7a8f49a85e7b1ca3199346040516107629190611891565b60405180910390a350506107746113a4565b50565b60036020528060005260406000206000915090508060000154908060010160009054906101000a900473ffffffffffffffffffffffffffffffffffffffff16908060020154908060030160009054906101000a900460ff16905084565b6107e28484846001856113ae565b50505050565b6107f0611723565b6107fa60006117aa565b565b6000600160009054906101000a900473ffffffffffffffffffffffffffffffffffffffff16905090565b6108348383836000806113ae565b505050565b60055481565b610847611723565b60006007549050600060078190555060006108606107fc565b73ffffffffffffffffffffffffffffffffffffffff168260405161088390611c5f565b60006040518083038185875af1925050503d80600081146108c0576040519150601f19603f3d011682016040523d82523d6000602084013e6108c5565b606091505b5050905080610909576040517f08c379a000000000000000000000000000000000000000000000000000000000815260040161090090611cc0565b60405180910390fd5b5050565b61091561135e565b60006002600083815260200190815260200160002090508060040160019054906101000a900460ff16801561097f57506000600181111561095957610958611aac565b5b8160040160009054906101000a900460ff16600181111561097d5761097c611aac565b5b145b6109be576040517f08c379a00000000000000000000000000000000000000000000000000000000081526004016109b590611e67565b60405180910390fd5b8060030154341015610a05576040517f08c379a00000000000000000000000000000000000000000000000000000000081526004016109fc90611ed3565b60405180910390fd5b60008160040160016101000a81548160ff0219169083151502179055506000808260010160009054906101000a900473ffffffffffffffffffffffffffffffffffffffff1673ffffffffffffffffffffffffffffffffffffffff16632a55205a8460020154346040518363ffffffff1660e01b8152600401610a88929190611ef3565b6040805180830381865afa158015610aa4573d6000803e3d6000fd5b505050506040513d601f19601f82011682018060405250810190610ac89190611f46565b915091506000811115610b2c5780600460008473ffffffffffffffffffffffffffffffffffffffff1673ffffffffffffffffffffffffffffffffffffffff1681526020019081526020016000206000828254610b249190611de7565b925050819055505b600061271060065434610b3f9190611f86565b610b499190611ff7565b90508060076000828254610b5d9190611de7565b92505081905550808234610b719190612028565b610b7b9190612028565b600460008660000160009054906101000a900473ffffffffffffffffffffffffffffffffffffffff1673ffffffffffffffffffffffffffffffffffffffff1673ffffffffffffffffffffffffffffffffffffffff1681526020019081526020016000206000828254610bed9190611de7565b925050819055508360010160009054906101000a900473ffffffffffffffffffffffffffffffffffffffff1673ffffffffffffffffffffffffffffffffffffffff166323b872dd303387600201546040518463ffffffff1660e01b8152600401610c599392919061205c565b600060405180830381600087803b158015610c7357600080fd5b505af1158015610c87573d6000803e3d6000fd5b505050503373ffffffffffffffffffffffffffffffffffffffff16857fc0e076a004e59b819c1099b4799386d7feaa928662e5f3f95af4db1a1502520d34604051610cd29190611891565b60405180910390a350505050610ce66113a4565b50565b60026020528060005260406000206000915090508060000160009054906101000a900473ffffffffffffffffffffffffffffffffffffffff16908060010160009054906101000a900473ffffffffffffffffffffffffffffffffffffffff16908060020154908060030154908060040160009054906101000a900460ff16908060040160019054906101000a900460ff16905086565b610d8761135e565b600060036000838152602001908152602001600020905060006002600084815260200190815260200160002090508160000154421015610dfc576040517f08c379a0000000000000000000000000000000000000000000000000000000008152600401610df3906120df565b60405180910390fd5b8060040160019054906101000a900460ff16610e4d576040517f08c379a0000000000000000000000000000000000000000000000000000000008152600401610e449061214b565b60405180910390fd5b60008160040160016101000a81548160ff02191690831515021790555060018260030160006101000a81548160ff021916908315150217905550600073ffffffffffffffffffffffffffffffffffffffff168260010160009054906101000a900473ffffffffffffffffffffffffffffffffffffffff1673ffffffffffffffffffffffffffffffffffffffff16146111f7576000808260010160009054906101000a900473ffffffffffffffffffffffffffffffffffffffff1673ffffffffffffffffffffffffffffffffffffffff16632a55205a846002015486600201546040518363ffffffff1660e01b8152600401610f49929190611ef3565b6040805180830381865afa158015610f65573d6000803e3d6000fd5b505050506040513d601f19601f82011682018060405250810190610f899190611f46565b915091506000811115610fed5780600460008473ffffffffffffffffffffffffffffffffffffffff1673ffffffffffffffffffffffffffffffffffffffff1681526020019081526020016000206000828254610fe59190611de7565b925050819055505b600061271060065486600201546110049190611f86565b61100e9190611ff7565b905080600760008282546110229190611de7565b925050819055508082866002015461103a9190612028565b6110449190612028565b600460008660000160009054906101000a900473ffffffffffffffffffffffffffffffffffffffff1673ffffffffffffffffffffffffffffffffffffffff1673ffffffffffffffffffffffffffffffffffffffff16815260200190815260200160002060008282546110b69190611de7565b925050819055508360010160009054906101000a900473ffffffffffffffffffffffffffffffffffffffff1673ffffffffffffffffffffffffffffffffffffffff166323b872dd308760010160009054906101000a900473ffffffffffffffffffffffffffffffffffffffff1687600201546040518463ffffffff1660e01b81526004016111469392919061205c565b600060405180830381600087803b15801561116057600080fd5b505af1158015611174573d6000803e3d6000fd5b505050508460010160009054906101000a900473ffffffffffffffffffffffffffffffffffffffff1673ffffffffffffffffffffffffffffffffffffffff16867fc0e076a004e59b819c1099b4799386d7feaa928662e5f3f95af4db1a1502520d87600201546040516111e79190611891565b60405180910390a35050506112b3565b8060010160009054906101000a900473ffffffffffffffffffffffffffffffffffffffff1673ffffffffffffffffffffffffffffffffffffffff166323b872dd308360000160009054906101000a900473ffffffffffffffffffffffffffffffffffffffff1684600201546040518463ffffffff1660e01b81526004016112809392919061205c565b600060405180830381600087803b15801561129a57600080fd5b505af11580156112ae573d6000803e3d6000fd5b505050505b50506112bd6113a4565b50565b6112c8611723565b600073ffffffffffffffffffffffffffffffffffffffff168173ffffffffffffffffffffffffffffffffffffffff160361133a5760006040517f1e4fbdf70000000000000000000000000000000000000000000000000000000081526004016113319190611a3e565b60405180910390fd5b611343816117aa565b50565b60046020528060005260406000206000915090505481565b60026000540361139a576040517f3ee5aeb500000000000000000000000000000000000000000000000000000000815260040160405180910390fd5b6002600081905550565b6001600081905550565b8473ffffffffffffffffffffffffffffffffffffffff166323b872dd3330876040518463ffffffff1660e01b81526004016113eb9392919061205c565b600060405180830381600087803b15801561140557600080fd5b505af1158015611419573d6000803e3d6000fd5b505050506000600560008154809291906114329061216b565b9190505590506040518060c001604052803373ffffffffffffffffffffffffffffffffffffffff1681526020018773ffffffffffffffffffffffffffffffffffffffff16815260200186815260200185815260200184600181111561149a57611499611aac565b5b8152602001600115158152506002600083815260200190815260200160002060008201518160000160006101000a81548173ffffffffffffffffffffffffffffffffffffffff021916908373ffffffffffffffffffffffffffffffffffffffff16021790555060208201518160010160006101000a81548173ffffffffffffffffffffffffffffffffffffffff021916908373ffffffffffffffffffffffffffffffffffffffff160217905550604082015181600201556060820151816003015560808201518160040160006101000a81548160ff0219169083600181111561158657611585611aac565b5b021790555060a08201518160040160016101000a81548160ff0219169083151502179055509050506001808111156115c1576115c0611aac565b5b8360018111156115d4576115d3611aac565b5b036116b157604051806080016040528083426115f09190611de7565b8152602001600073ffffffffffffffffffffffffffffffffffffffff16815260200185815260200160001515815250600360008381526020019081526020016000206000820151816000015560208201518160010160006101000a81548173ffffffffffffffffffffffffffffffffffffffff021916908373ffffffffffffffffffffffffffffffffffffffff1602179055506040820151816002015560608201518160030160006101000a81548160ff0219169083151502179055509050505b8573ffffffffffffffffffffffffffffffffffffffff163373ffffffffffffffffffffffffffffffffffffffff16827f8cc29aedd4c438083037f38a9e64688219ad0bcbfdb955144ef79a8dd3d435ad888888604051611713939291906121b3565b60405180910390a4505050505050565b61172b611870565b73ffffffffffffffffffffffffffffffffffffffff166117496107fc565b73ffffffffffffffffffffffffffffffffffffffff16146117a85761176c611870565b6040517f118cdaa700000000000000000000000000000000000000000000000000000000815260040161179f9190611a3e565b60405180910390fd5b565b6000600160009054906101000a900473ffffffffffffffffffffffffffffffffffffffff16905081600160006101000a81548173ffffffffffffffffffffffffffffffffffffffff021916908373ffffffffffffffffffffffffffffffffffffffff1602179055508173ffffffffffffffffffffffffffffffffffffffff168173ffffffffffffffffffffffffffffffffffffffff167f8be0079c531659141344cd1fd0a4f28419497f9722a3daafe3b4186f6b6457e060405160405180910390a35050565b600033905090565b6000819050919050565b61188b81611878565b82525050565b60006020820190506118a66000830184611882565b92915050565b600080fd5b6118ba81611878565b81146118c557600080fd5b50565b6000813590506118d7816118b1565b92915050565b6000602082840312156118f3576118f26118ac565b5b6000611901848285016118c8565b91505092915050565b600073ffffffffffffffffffffffffffffffffffffffff82169050919050565b60006119358261190a565b9050919050565b6119458161192a565b82525050565b60008115159050919050565b6119608161194b565b82525050565b600060808201905061197b6000830187611882565b611988602083018661193c565b6119956040830185611882565b6119a26060830184611957565b95945050505050565b6119b48161192a565b81146119bf57600080fd5b50565b6000813590506119d1816119ab565b92915050565b600080600080608085870312156119f1576119f06118ac565b5b60006119ff878288016119c2565b9450506020611a10878288016118c8565b9350506040611a21878288016118c8565b9250506060611a32878288016118c8565b91505092959194509250565b6000602082019050611a53600083018461193c565b92915050565b600080600060608486031215611a7257611a716118ac565b5b6000611a80868287016119c2565b9350506020611a91868287016118c8565b9250506040611aa2868287016118c8565b9150509250925092565b7f4e487b7100000000000000000000000000000000000000000000000000000000600052602160045260246000fd5b60028110611aec57611aeb611aac565b5b50565b6000819050611afd82611adb565b919050565b6000611b0d82611aef565b9050919050565b611b1d81611b02565b82525050565b600060c082019050611b38600083018961193c565b611b45602083018861193c565b611b526040830187611882565b611b5f6060830186611882565b611b6c6080830185611b14565b611b7960a0830184611957565b979650505050505050565b600060208284031215611b9a57611b996118ac565b5b6000611ba8848285016119c2565b91505092915050565b600082825260208201905092915050565b7f4e6f2066756e647320746f207769746864726177000000000000000000000000600082015250565b6000611bf8601483611bb1565b9150611c0382611bc2565b602082019050919050565b60006020820190508181036000830152611c2781611beb565b9050919050565b600081905092915050565b50565b6000611c49600083611c2e565b9150611c5482611c39565b600082019050919050565b6000611c6a82611c3c565b9150819050919050565b7f5472616e73666572206661696c65640000000000000000000000000000000000600082015250565b6000611caa600f83611bb1565b9150611cb582611c74565b602082019050919050565b60006020820190508181036000830152611cd981611c9d565b9050919050565b7f41756374696f6e20656e646564206f7220696e61637469766500000000000000600082015250565b6000611d16601983611bb1565b9150611d2182611ce0565b602082019050919050565b60006020820190508181036000830152611d4581611d09565b9050919050565b7f42696420746f6f206c6f77000000000000000000000000000000000000000000600082015250565b6000611d82600b83611bb1565b9150611d8d82611d4c565b602082019050919050565b60006020820190508181036000830152611db181611d75565b9050919050565b7f4e487b7100000000000000000000000000000000000000000000000000000000600052601160045260246000fd5b6000611df282611878565b9150611dfd83611878565b9250828201905080821115611e1557611e14611db8565b5b92915050565b7f496e76616c6964206c697374696e670000000000000000000000000000000000600082015250565b6000611e51600f83611bb1565b9150611e5c82611e1b565b602082019050919050565b60006020820190508181036000830152611e8081611e44565b9050919050565b7f496e73756666696369656e74207061796d656e74000000000000000000000000600082015250565b6000611ebd601483611bb1565b9150611ec882611e87565b602082019050919050565b60006020820190508181036000830152611eec81611eb0565b9050919050565b6000604082019050611f086000830185611882565b611f156020830184611882565b9392505050565b600081519050611f2b816119ab565b92915050565b600081519050611f40816118b1565b92915050565b60008060408385031215611f5d57611f5c6118ac565b5b6000611f6b85828601611f1c565b9250506020611f7c85828601611f31565b9150509250929050565b6000611f9182611878565b9150611f9c83611878565b9250828202611faa81611878565b91508282048414831517611fc157611fc0611db8565b5b5092915050565b7f4e487b7100000000000000000000000000000000000000000000000000000000600052601260045260246000fd5b600061200282611878565b915061200d83611878565b92508261201d5761201c611fc8565b5b828204905092915050565b600061203382611878565b915061203e83611878565b925082820390508181111561205657612055611db8565b5b92915050565b6000606082019050612071600083018661193c565b61207e602083018561193c565b61208b6040830184611882565b949350505050565b7f41756374696f6e207374696c6c2072756e6e696e670000000000000000000000600082015250565b60006120c9601583611bb1565b91506120d482612093565b602082019050919050565b600060208201905081810360008301526120f8816120bc565b9050919050565b7f416c72656164792066696e616c697a6564000000000000000000000000000000600082015250565b6000612135601183611bb1565b9150612140826120ff565b602082019050919050565b6000602082019050818103600083015261216481612128565b9050919050565b600061217682611878565b91507fffffffffffffffffffffffffffffffffffffffffffffffffffffffffffffffff82036121a8576121a7611db8565b5b600182019050919050565b60006060820190506121c86000830186611882565b6121d56020830185611882565b6121e26040830184611b14565b94935050505056fea2646970667358221220ea0f5468faf3b5dde2da0cb7e0d9ef606d15c401f5c5cb15bc3168510302a7c264736f6c634300081c0033",
  "linkReferences": {},
  "deployedLinkReferences": {}
}